:100000000C945E000C9486000C9486000C94860080
:100010000C9486000C9486000C9486000C94860048
:100020000C9486000C9486000C9486000C94860038
:100030000C9486000C9486000C9486000C94860028
:100040000C944C030C9486000C9460050C94A3054E
:100050000C9486000C9486000C9486000C94860008
:100060000C9486000C94860000000007000201003A
:100070000003040600000000000000000102040864
:100080001020408001020408102001020408102002
:10009000040404040404040402020202020203032E
:1000A0000303030300000000250028002B000000CC
:1000B0000000240027002A00AF005F0611241FBEA5
:1000C000CFEFD8E0DEBFCDBF11E0A0E0B1E0EEE1C0
:1000D000F5E102C005900D92A832B107D9F711E001
:1000E000A8E2B1E001C01D92A53FB107E1F710E021
:1000F000CCEBD0E004C02297FE010E94790AC83BF5
:10010000D107C9F70E949C070C948D0A0C9400003B
:1001100040E855E260E070E086E491E00E94DE0590
:1001200061E089E00E94110461E088E00E9411040E
:1001300061E08AE00E94110460E088E00E944A04C5
:1001400060E089E00E944A0460E08AE00E944A047C
:1001500020E042E060E188E291E00C946C02CF92F2
:10016000EF920F9382E0C82E93E0E92E04E025E0A1
:100170004BE06CE088E291E00E9420030F91EF9049
:10018000CF9008950F931F93CF93DF93CDB7DEB732
:100190002E970FB6F894DEBF0FBECDBF86E491E078
:1001A0000E94C804181619060CF0A6C066E471E097
:1001B000CE0108960E94AE046EE071E0CE01019679
:1001C0000E94230760E070E0CE0108960E94790744
:1001D000FC011081612F86E491E00E9433081936FA
:1001E00079F461E08AE00E944A0460E088E00E94BD
:1001F0004A0460E089E00E944A0400E010E024C064
:10020000173751F460E08AE00E944A0460E089E018
:100210000E944A0461E00BC0153679F761E089E07D
:100220000E944A0460E08AE00E944A0460E088E09C
:10023000E2CFB801CE0108960E947907FC018081C7
:10024000813641F40F5F1F4F8C859D850817190774
:1002500080F325C0B801CE0108960E947907FC0101
:100260008081853679F3B801CE0108960E9479071E
:10027000FC018081893631F3B801CE0108960E94D5
:100280007907FC0180818F36E9F2B801CE0108962A
:100290000E947907FC018081853711F5D3CFBE011B
:1002A0006F5F7F4F86E491E00E94210841E061E0AA
:1002B00088E291E00E943702BE016F5F7F4F88E2C3
:1002C00091E00E94D10788E291E00E946402CE0191
:1002D00001960E94B506CE0108960E94B5060CC094
:1002E000B801CE0108960E947907FC016081CE0119
:1002F00001960E946607A6CF2E960FB6F894DEBF31
:100300000FBECDBFDF91CF911F910F910895CF9375
:10031000DF93EC0160E08E810E944A0481E090E06E
:100320000E94A20361E08E810E944A0481E090E075
:100330000E94A20360E08E810E944A0484E690E05D
:10034000DF91CF910C94A203CF92DF92EF92FF92B4
:100350000F931F93CF93DF937C01C0E0D0E0C62EB4
:10036000D12C87010C0F1D1F61E0F80187810E94CD
:100370001104B6010C2E02C0759567950A94E2F738
:100380006170F80187810E944A042196C430D1052A
:1003900041F7C701DF91CF911F910F91FF90EF902F
:1003A000DF90CF900C948701CF92DF92EF92FF9273
:1003B0000F931F93CF93DF937C01C0E0D0E0C62E54
:1003C000D12C87010C0F1D1F61E0F80187810E946D
:1003D0001104B6010C2E02C0759567950A94E2F7D8
:1003E0006170F80187810E944A042196C830D105C6
:1003F00041F7C701DF91CF911F910F91FF90EF90CF
:10040000DF90CF900C9487011F93CF93DF93EC0183
:10041000162F642F8C810E944A048D818F3F19F022
:1004200060E00E944A048F85612F84FF06C0CE01E0
:10043000DF91CF911F910C94D40170E084E0759509
:1004400067958A95E1F7CE010E94A401612FCE0144
:10045000DF91CF911F910C94A40140E00C94040211
:1004600061E00E942D0280ED97E00C94A203CF93EF
:10047000DF93CDB7DEB728970FB6F894DEBF0FBE77
:10048000CDBF28E0E6E0F1E0DE01119601900D928B
:100490002A95E1F7FC012389421710F04FEF420F34
:1004A000FE013196E40FF11DE40FF11D2081260FAE
:1004B0002068622F28960FB6F894DEBF0FBECDBF1E
:1004C000DF91CF910C942D02FC016089262F2460CE
:1004D000208B6C600C942D02CF93DF93EC014230A3
:1004E00018F08F8588608F874B8B1C8A222329F018
:1004F000413019F48F8584608F8780E593EC0E94EA
:10050000A20360E08C810E944A0460E08E810E9418
:100510004A048D818F3F19F060E00E944A046F8584
:1005200064FD1DC063E0CE010E94A40184E991E155
:100530000E94A20363E0CE010E94A40184E991E13C
:100540000E94A20363E0CE010E94A40186E990E02C
:100550000E94A20362E0CE010E94A40116C0606264
:10056000CE010E942D0284E991E10E94A2036F85D1
:100570006062CE010E942D0286E990E00E94A203F3
:100580006F856062CE010E942D026F856062CE0190
:100590000E942D0284E0888BCE010E946402CE016D
:1005A0000E94300282E0898B66E0CE01DF91CF911C
:1005B0000C942D026F927F928F92AF92CF92EF9216
:1005C0000F931F93CF93DF93CDB7DEB73C01162F68
:1005D000842F5D854E853F859889F301848325832B
:1005E0000683E782C086A186828653874487358743
:1005F000968761E00E941104F30185818F3F19F015
:1006000061E00E94110461E0F30186810E941104FF
:10061000112319F0F301178603C080E1F3018787E6
:1006200020E041E060E1C301DF91CF911F910F9184
:10063000EF90CF90AF908F907F906F900C946C0262
:100640008F92AF92CF92EF920F93DC0113961C9290
:100650001E921297E3E1F1E0ED93FC931F921F923B
:100660001F921F928C2CAE2CC02EE22E042F2FEF47
:10067000462F61E00E94DA020F900F900F900F90CA
:100680000F91EF90CF90AF908F90089541E00E942E
:10069000040281E090E008951F920F920FB60F922E
:1006A00011242F933F938F939F93AF93BF93809188
:1006B0003E0190913F01A0914001B09141013091E4
:1006C0003D0123E0230F2D3720F40196A11DB11D1C
:1006D00005C026E8230F0296A11DB11D20933D0100
:1006E00080933E0190933F01A0934001B09341015C
:1006F0008091420190914301A0914401B091450144
:100700000196A11DB11D8093420190934301A093D6
:100710004401B0934501BF91AF919F918F913F915B
:100720002F910F900FBE0F901F9018952FB7F89430
:1007300060913E0170913F01809140019091410193
:100740002FBF08950197009739F0880F991F880FE0
:10075000991F02970197F1F70895789484B5826004
:1007600084BD84B5816084BD85B5826085BD85B555
:10077000816085BDEEE6F0E0808181608083E1E804
:10078000F0E010828081826080838081816080833C
:10079000E0E8F0E0808181608083E1EBF0E080813F
:1007A00084608083E0EBF0E0808181608083EAE711
:1007B000F0E080818460808380818260808380819A
:1007C000816080838081806880831092C100089559
:1007D000833081F028F4813099F08230A1F00895BF
:1007E0008630A9F08730B9F08430D1F48091800050
:1007F0008F7D03C0809180008F7780938000089563
:1008000084B58F7702C084B58F7D84BD08958091B3
:10081000B0008F7703C08091B0008F7D8093B000CF
:100820000895CF93DF9390E0FC01E458FF4F2491AB
:10083000FC01E057FF4F8491882349F190E0880F35
:10084000991FFC01E255FF4FA591B4918C559F4F24
:10085000FC01C591D4919FB7611108C0F8948C91A7
:10086000209582238C93888182230AC0623051F4C0
:10087000F8948C91322F309583238C938881822B2E
:10088000888304C0F8948C91822B8C939FBFDF9156
:10089000CF9108950F931F93CF93DF931F92CDB7FE
:1008A000DEB7282F30E0F901E859FF4F8491F901B4
:1008B000E458FF4F1491F901E057FF4F04910023D2
:1008C000C9F0882321F069830E94E8036981E02F41
:1008D000F0E0EE0FFF1FEC55FF4FA591B4919FB7CD
:1008E000F8948C91611103C01095812301C0812B74
:1008F0008C939FBF0F90DF91CF911F910F9108951F
:100900000F931F93CF93DF93EC010E9496036887A8
:1009100079878A879B87E881F9810680F781E02DB6
:10092000CE01099597FF15C00E9496030885198589
:100930002A853B85601B710B820B930B0C811D81FB
:100940002E813F81601771078207930720F38FEF95
:100950009FEFDF91CF911F910F9108950F931F93F8
:10096000CF93DF93EC018B016EE071E00E942307CF
:10097000C8010E94800497FD05C0682FCE010E9427
:100980006607F6CFCE01DF91CF911F910F910895A9
:10099000FC0124853585F901E05CFF4F8081918160
:1009A000F901EE5BFF4F20813181821B930B8F7326
:1009B00099270895FC0184859585FC01E05CFF4F33
:1009C00040815181FC01EE5BFF4F20813181421754
:1009D000530741F00190F081E02DE80FF91F80816D
:1009E00090E008958FEF9FEF0895FC018485958531
:1009F000FC01E05CFF4F40815181FC01EE5BFF4F49
:100A0000208131814217530779F0A081B181A80F6D
:100A1000B91F8C91208131812F5F3F4F2F73332776
:100A20003183208390E008958FEF9FEF0895FC01BC
:100A300081A1882329F0A489B5898C9186FFFBCFF9
:100A400011A20895CF93DF93FC0126853785D90144
:100A5000A05CBF4F8D919C91119701968F73992740
:100A6000E901CE5BDF4F4881598184179507D9F39F
:100A70000D90BC91A02DA20FB31F6C93A685B785D6
:100A8000A05CBF4F11969C938E93A689B7892C9139
:100A900081E090E0078C02C0880F991F0A94E2F76A
:100AA000282B2C9381E081A30488F589E02D808197
:100AB0008064808381E090E0DF91CF910895089574
:100AC0001F920F920FB60F9211242F933F934F93C3
:100AD0008F939F93EF93FF938091C00082FD1CC082
:100AE0004091C6008091EC019091ED0101968F73C9
:100AF00099272091EE013091EF018217930771F051
:100B0000E091EC01F091ED01E455FE4F40839093AC
:100B1000ED018093EC0102C08091C600FF91EF913E
:100B20009F918F914F913F912F910F900FBE0F90FA
:100B30001F90189586E491E00E94C804892B11F05B
:100B40000C945F0508951F920F920FB60F92112417
:100B50002F933F938F939F93EF93FF932091A8013F
:100B60003091A9018091AA019091AB012817390712
:100B700031F48091C1008F7D8093C10014C0E09159
:100B8000AA01F091AB01E859FE4F20818091AA01A2
:100B90009091AB0101968F7399279093AB0180934D
:100BA000AA012093C600FF91EF919F918F913F91F1
:100BB0002F910F900FBE0F901F901895CF92DF923C
:100BC000EF92FF92CF93DF93EC016A017B01411515
:100BD00081EE580761057105F9F0EC89FD8981E026
:100BE00090E008A002C0880F991F0A94E2F7808362
:100BF00060E079E08DE390E0A70196010E94550A3C
:100C00002150310941095109569547953795279546
:100C1000211580E1380798F0EC89FD89108260E8A1
:100C200074E88EE190E0A70196010E94550A2150D8
:100C30003109410951095695479537952795E88916
:100C4000F9893083EA89FB89208319A2EE89FF891B
:100C5000408181E090E09C010C8C02C0220F331F88
:100C60000A94E2F7422B4083EE89FF8940819C0180
:100C70000D8C02C0220F331F0A94E2F7422B4083EF
:100C8000EE89FF8940819C010E8C02C0220F331F28
:100C90000A94E2F7422B4083EE89FF8920810F8C72
:100CA00002C0880F991F0A94E2F7809582238083FF
:100CB000DF91CF91FF90EF90DF90CF900895109249
:100CC00049011092480188EE93E0A0E0B0E08093E3
:100CD0004A0190934B01A0934C01B0934D018BE1DD
:100CE00091E090934701809346018CEA91E09093C4
:100CF00053018093520188E691E0909355018093CF
:100D0000540185EC90E0909357018093560184EC58
:100D100090E0909359018093580180EC90E090937B
:100D20005B0180935A0181EC90E090935D01809388
:100D30005C0182EC90E090935F0180935E0186EC11
:100D400090E0909361018093600184E08093620160
:100D500083E08093630187E08093640185E0809362
:100D6000650181E0809366010895FC018081918195
:100D70000C94DD08CF93DF93EC0188819981009773
:100D800011F00E94DD08198218821D821C821B82CC
:100D90001A82DF91CF9108950F931F93CF93DF9322
:100DA000EC018B016F5F7F4F888199810E946C09F4
:100DB000009731F0998388831B830A8381E001C007
:100DC00080E0DF91CF911F910F910895CF93DF9332
:100DD000EC0188819981892B29F08A819B81861772
:100DE000970760F4CE010E94CC06882341F08C81E5
:100DF0009D81892B19F4E881F981108281E0DF91CE
:100E0000CF910895EF92FF920F931F93CF93DF93AB
:100E1000EC017B018A01BA010E94E606811104C03F
:100E2000CE010E94BA0607C01D830C83B7018881DA
:100E300099810E94860ACE01DF91CF911F910F9177
:100E4000FF90EF900895FC011182108213821282AC
:100E50001582148216826115710559F0FB0101900B
:100E60000020E9F7AF0141505109461B570B0C9484
:100E700002070895EF92FF920F931F93CF93DF9392
:100E8000EC017B010C811D816115710511F480E07D
:100E900016C04115510591F0040F151FB8010E94AD
:100EA000E6068823A1F3288139818C819D81B701D1
:100EB000820F931F0E94860A1D830C8381E0DF91BD
:100EC000CF911F910F91FF90EF900895CF93DF93F3
:100ED00000D0CDB7DEB769831A8241E050E0BE0191
:100EE0006F5F7F4F0E943A070F900F90DF91CF9175
:100EF0000895FC01848195816817790720F4808129
:100F00009181009729F41092F00180EF91E008950B
:100F1000860F971F0895FC0124813581621773079E
:100F200048F480819181009729F0FC01E60FF71FBA
:100F30008081089580E008950E94AD030E9488009A
:100F4000CAE9D5E00E94C2002097E1F30E949A0509
:100F5000F9CFCF92DF92EF92FF920F931F93CF932F
:100F6000DF936C017A01EB01E60EF71E00E010E062
:100F7000CE15DF0561F06991D601ED91FC910190EC
:100F8000F081E02DC6010995080F191FF1CFC801A6
:100F9000DF91CF911F910F91FF90EF90DF90CF9055
:100FA0000895AF92BF92CF92DF92EF92FF920F938C
:100FB0001F93CF93DF937C016B01C0E0D0E000E092
:100FC00010E0D60114968D919C911597C817D907FA
:100FD00088F4D701ED91FC91A080B180BE01C601DB
:100FE0000E948B07682FC701F5010995080F191F8B
:100FF0002196E7CFC801DF91CF911F910F91FF900C
:10100000EF90DF90CF90BF90AF900895DC01ED910D
:10101000FC910190F081E02D09940F931F93CF93E1
:10102000DF93EC016DE00E9406088C016AE0CE01BE
:101030000E940608800F911FDF91CF911F910F91A1
:1010400008950F931F93CF93DF93EC010E94D10774
:101050008C01CE010E940D08800F911FDF91CF916E
:101060001F910F9108950F931F93CF93DF93EC017E
:101070000E9406088C01CE010E940D08800F911F6E
:10108000DF91CF911F910F910895CF93DF9382301D
:10109000910510F482E090E0E091F301F091F40109
:1010A00020E030E0A0E0B0E0309739F1408151819C
:1010B00048175907B8F04817590771F4828193818E
:1010C000109729F013969C938E9312972CC09093AF
:1010D000F4018093F30127C02115310531F0421747
:1010E000530718F0A901DB0101C0EF019A01BD010E
:1010F000DF010280F381E02DD7CF21153105F9F012
:10110000281B390B2430310580F48A819B816115BD
:10111000710521F0FB019383828304C09093F40155
:101120008093F301FE01329644C0FE01E20FF31FEB
:101130008193919322503109398328833AC02091B9
:10114000F1013091F201232B41F420910201309101
:1011500003013093F2012093F101209100013091BD
:1011600001012115310541F42DB73EB7409104012D
:1011700050910501241B350BE091F101F091F20132
:10118000E217F307A0F42E1B3F0B2817390778F05E
:10119000AC014E5F5F4F2417350748F04E0F5F1FBD
:1011A0005093F2014093F1018193919302C0E0E0EA
:1011B000F0E0CF01DF91CF910895CF93DF930097B7
:1011C00009F487C0FC01329713821282C091F301A7
:1011D000D091F401209781F420813181280F391FAB
:1011E0008091F1019091F2018217930779F5F093C4
:1011F000F201E093F1016DC0DE0120E030E0AE17B6
:10120000BF0750F412964D915C9113979D014115C3
:10121000510509F1DA01F3CFB383A28340815181F3
:10122000840F951F8A179B0771F48D919C911197DC
:10123000840F951F02969183808312968D919C91C5
:101240001397938382832115310529F4F093F401D8
:10125000E093F3013EC0D9011396FC93EE931297ED
:101260004D915D91A40FB51FEA17FB0779F48081BA
:101270009181840F951F0296D90111969C938E93AC
:101280008281938113969C938E931297E0E0F0E015
:101290008A819B81009719F0FE01EC01F9CFCE0104
:1012A000029628813981820F931F2091F10130919C
:1012B000F2012817390769F4309729F41092F401E4
:1012C0001092F30102C013821282D093F201C093F4
:1012D000F101DF91CF9108956F927F928F929F924B
:1012E000AF92BF92CF92DF92EF92FF920F931F9334
:1012F000CF93DF93EC01CB01209781F4DF91CF9165
:101300001F910F91FF90EF90DF90CF90BF90AF9023
:101310009F908F907F906F900C944508FE01E60F90
:10132000F71F9E0122503109E217F30708F4ACC001
:10133000D9010D911C91119706171707B8F00530C8
:10134000110508F49FC0A8014450510946175707DA
:1013500008F498C002501109061B170B0193119352
:101360006D937C93CF010E94DD088CC05B01A01AB5
:10137000B10A4E01800E911EA091F301B091F401CB
:10138000612C712C60E070E0109709F449C0A81539
:10139000B905C9F5ED90FC901197670142E0C40EC4
:1013A000D11CCA14DB0478F147018A189B08640138
:1013B00042E0C40ED11C1296BC9012971396AC91C9
:1013C000B5E0CB16D10440F0B282A3839182808233
:1013D000D9018D939C9309C00E5F1F4F0E0D1F1DE9
:1013E000F90111830083EB2DFA2F6115710531F09E
:1013F000DB011396FC93EE93129744C0F093F40133
:10140000E093F3013FC06D917C91119766167706CA
:1014100008F43B01BD0112960D90BC91A02DB4CFF4
:101420006091F1017091F20168157905E9F468168F
:101430007906D0F440910001509101014115510508
:1014400041F44DB75EB76091040170910501461BF0
:10145000570BE417F507C0F4F093F201E093F101A4
:10146000F901918380830EC00E9445087C0100979A
:1014700059F0A801BE010E947D0ACE010E94DD083C
:10148000C70104C0CE0102C080E090E0DF91CF919F
:101490001F910F91FF90EF90DF90CF90BF90AF9092
:1014A0009F908F907F906F900895A1E21A2EAA1BB3
:1014B000BB1BFD010DC0AA1FBB1FEE1FFF1FA21704
:1014C000B307E407F50720F0A21BB30BE40BF50B01
:1014D000661F771F881F991F1A9469F7609570958A
:1014E000809590959B01AC01BD01CF010895EE0F51
:1014F000FF1F0590F491E02D0994FB01DC0102C06F
:1015000001900D9241505040D8F70895FB01DC0145
:0E15100001900D920020E1F70895F894FFCFAE
:10151E000000F5018000000040001400540000009F
:10152E000000004603A907000000002205A907C815
:08153E0004F504DA04170500AE
:00000001FF
